:020000020000FC
:040000000C94003824
:10010000D07E00001000000000000000000000078A
:10011000287D00007E06960640017E06006F816FF6
:10700000A4B6BB242224332424BEA0EFADBFB7E036
:10701000BEBFC0EFD6E00C94773F0000043F4B4565
:1070200059009A938A9388279927C101A091C0009B
:10703000A7FF08958091C6009A938A938FEF9FEFE0
:1070400008951C7004454D495400A091C000A5FF4F
:10705000FCCF8093C600899199910895A9E1A093EE
:10706000C400AA27A093C500A8E1A093C100A6E090
:10707000A093C20008959A938A93FF91EF91EE0F27
:10708000FF1F85919591F795E795EF93FF930895ED
:10709000FF91EF91BF91AF91119724F43196EF9347
:1070A000FF930895AF93BF93EE0FFF1FA591B59186
:1070B000AF93BF930895FF91EF91892B8991999197
:1070C00031F03196EF93FF930895FF91EF91EE0F1A
:1070D000FF1FA591B591AF93BF93089544700745E5
:1070E000584543555445959587958F939F9389911E
:1070F00099910895DE70044558495400BF91AF91AD
:107100000895F6700121FC01899199919183808302
:1071100089919991089504710140FC0181919191A7
:107120000895187102494000A6DF1C0135D0C3DF65
:10713000A238A1DF1E0130D0BEDFA538FC01859149
:107140009591089598DF1C0102C095DF1E012BD098
:10715000E4CF2471034943408EDF1C011DD0ABDF17
:10716000BA3889DF1E0118D0A6DFBD38FC01992787
:107170008491089580DF1C0102C07DDF1E0113D0C1
:107180009DC079DF0100F7D096DFC93874DF800831
:10719000089571DF00080895C0DFDDD0FCD06BDFFB
:1071A000807FE9D00895B9DFECDFCBD064DF7F00CA
:1071B000E2D0F1C05471024921005DDF1C01ECDF17
:1071C0007ADFF33858DF1E01E7DF75DFF23853DF6F
:1071D0001E01A3DF50DF0080CED06DDFF03804D079
:1071E00010D019D027D032C046DF1E0196DFA2D0C2
:1071F00042DF807FC0D09ED091D6A3D0C2DFA1D085
:1072000098C639DF1E0189DFBCDFA5D034DF807F5F
:10721000B2D097D0A6C68ED02EDF807FACD02BDF29
:107220001E018FD098D079DF26DF0100A4D0ABD02B
:1072300088D069CF20DF1E0170DF1DDF1C016DDFEC
:107240001ADF1E0160DF17DF1C015DCF14DF7E0037
:1072500092D011DF1C0161DF94DF95D054DF0BDF8A
:107260001C0168D05ADF07DF00808DD06AD04BCF79
:10727000B67105464C55534803D0DCDF01D0DACF58
:10728000FADE1E014ADF56D0F6DE008074D013DF2E
:107290005039F1DEFF7F6FD0EEDE1E0134DFA4CF68
:1072A00043C0727202432100FC018991999180834D
:1072B000899199910895A47202434000FC01992795
:1072C00080810895B87242523E009A938A93BF918A
:1072D000AF919F918F91AF93BF930895C672025261
:1072E00040009A938A93BF91AF919F918F918F9312
:1072F0009F93AF93BF930895DE72423E5200BF91B9
:10730000AF918F939F93AF93BF9389919991089574
:107310009A938A93CE010895EC01899199910895E9
:10732000FA720444524F5000899199910895227342
:10733000034455509A938A930895307304535741E8
:107340005000DC0189919991BA93AA9308953C73F6
:10735000044F564552009A938A938A819B810895DF
:10736000507302303C009923C1010CF40197089539
:10737000627303414E44A991B9918A239B230895D6
:107380007273024F5200A991B9918A2B9B2B0895D9
:10739000827303584F52A991B9918A279B27089568
:1073A000927303554D2BA991B9918A0F9B1F9A9304
:1073B0008A9399278827881F08959A938A93FF9123
:1073C000EF91EE0FFF1F859195910895A273052708
:1073D000424F4F54F2DF0001CE7304424153450047
:1073E000ECDF0401DA7303544D50E7DF0601E67366
:1073F000045350414E00E1DF0801F073033E494E53
:10740000DCDF0A01FC73042354494200D6DF0C017F
:107410000674042754494200D0DF0E011274052778
:107420004556414CCADF10011E7403484C44C5DF69
:1074300012012A7407434F4E54455854BEDF1401BD
:10744000347402435000B9DF160142740244500004
:10745000B4DF18014C74044C41535400AEDF1A01E0
:10746000567402322A00880F991F089562740232FE
:107470002F0095958795089501968E7F08956E74D7
:1074800002424C009A938A9380E29927089580746F
:10749000043F44555000082F092B11F09A938A930A
:1074A0000895907403524F548C0129913991899118
:1074B00099913A932A931A930A930895A4740532E2
:1074C00044524F5089919991899199910895BE7430
:1074D0000432445550003FDF3ECFD074012B099158
:1074E0001991800F911F0895DC7406494E5645523C
:1074F0005400809590950895EA74064E454741548E
:107500004500F7DF01960895FA7407444E45474158
:107510005445EFDFF4DEEDDFAEDD010044DFD5DE04
:10752000DECF0A75012D09911991081B190BC801AD
:107530000895247503414253FDDE15DFBCDDA13AF9
:10754000E0CF08953475013D26DFB5DDAA3A93DD1D
:107550000000089590DDFFFF0895467502553C0038
:10756000BADF19DF00DFA7DDB83AEBDEDDDEFBCEE8
:10757000DADFF9CE5C75013CAEDF0DDFF4DE9BDDBA
:10758000C33AD2DEF0CECFDFEECE7675034D415852
:10759000A2DFF2DF90DDCD3AD4DEC6CE8C75034D8E
:1075A000494E99DFCEDEE8DF86DDD73ACADEBCCEB3
:1075B0009E750657495448494E00CDDEB4DF9FDE24
:1075C000B2DF83DECDCFB27506554D2F4D4F44004F
:1075D0007C01299139910991199140E15527000FBA
:1075E000111F221F331F551F2E153F05520518F07E
:1075F00003952E193F094A9589F73A932A93C801B2
:107600000895C875054D2F4D4F4494DEACDE92DED3
:1076100076DE51DD0F3B75DF72DE7BDF56DE6FDE1F
:1076200089DEA1DE48DD163B5CDE59DF4EDED0DFB1
:107630004CDE41DD1E3B85DE64DF83DE089504768B
:10764000042F4D4F440087DE8EDE7BDEDECF40769A
:10765000034D4F44F8DF68CE5076012FF4DF71DE22
:1076600063CE5A7603554D2A8C0189919991809F5A
:10767000F00122273327909FF00D211D331D819F9C
:10768000F00D211D331D919F200D311DCF019A93C7
:107690008A93C90108956476012A04D045CE98766C
:1076A000024D2A0018DF77DE5EDE29DE45DF49DE87
:1076B00043DFDADF0ADEFFDC5E3B2BDF0895A076D6
:1076C000052A2F4D4F441BDEEDDFFFDD9ECFC07638
:1076D000022A2F00F8DF35DE27CE2CDED3DECBDC0E
:1076E0007F006BDFE8DC753B08951EDEC4DC5F00C5
:1076F0000895D0760544455054480ADEBCDCEE06B9
:1077000020DE11DFB6CEF476045049434B000196DB
:10771000AADEFEDDE4DE01CD0877022B210011DEBA
:107720001ADEFBDCDCDE0DDEEECC1A7705434F55AE
:107730004E54FC010191CF019A938A93802F99278F
:1077400008952C770649434F554E5400F3DD0196BA
:10775000F8DD02CD447704484552450079DEDDCCA2
:10776000567703504144FADF86DC4000B8CE62779A
:10777000035449424BDE0296D0CC707708404558FE
:10778000454355544500C9DC86DE95DCC83BABDC7F
:1077900008957C7705434D4F5645B1DD06C0AFDDFA
:1077A000C8DF9FDD81DD91DD019672DCCF3B8ACEA3
:1077B000C1DD61DC61005FDC7B00FFDE7CDCE33B84
:1077C0005ADC5F00D8DD08959ADD07C098DDB1DF8F
:1077D000EFDF87DD69DD79DD01965ADCE63B72CEAD
:1077E00094770446494C4C00ACDD89DDAADD03C02A
:1077F00072DE5ADD01964CDCF83B64CE3CDC0900BD
:10780000AADDBADE38DC0700B6DD69DE34DC300024
:1078100066CE31DC000095DDDBDE93DDEFCFE27775
:10782000023C2300A0DF03DE6ECC207804484F4CDE
:107830004400FDDD72DC01977DDDF9DD64DC34CDD3
:107840002C780123CDDD69DCE4DFF3CF427802231D
:107850005300F8DF6FDD2FDC2E3CFBCF08954E7810
:10786000045349474E007FDD26DC393C04DC2D0003
:10787000E0DF0895607802233E0056DDD8DD4DDC60
:1078800072DF69DD50CE56DD3ADD56DECBDFE1DF5B
:107890001CDDE9DFF2CF767803484558ECDB1000B9
:1078A0009FDD31CC987807444543494D414CE3DB9B
:1078B0000A0096DD28CC23DDDEDB300034DEDBDBA6
:1078C000090049DD59DEF7DB6D3CD5DB07002BDE17
:1078D00031DDD1DB0A0050DE56DD2CDDF6DC40CE9A
:1078E000A678074E554D4245523F7ADD16DC07DD3E
:1078F000C2DB000030DD1DDF2EDDE0DCBCDB240060
:1079000023DED9DB883CCADF1CDD01961ADD019736
:1079100022DDD4DCB0DB2D0017DEF1DC12DDE1DC92
:1079200002DE0FDDDEDCDBDDB6DDC5DBB83C01975A
:10793000E6DC00DDE4DCC2DC53DDEFDBBCDFBBDB1F
:10794000B13CFFDC4DDDE9DBA8DEC9DDBEDC019624
:107950009FDB993CE9DCC5DCAEDBAF3CD2DDF1DC82
:1079600006C0B3DCB2DCAEDDADDD85DB0000E2DC01
:10797000ACDCA8DDAADC34DDC6CBE278034B45598C
:1079800050DB99DBC03C08957C7905535041434559
:1079900079DD5BCBD6DCB3DC02C0CCDC56DB78DB3C
:1079A000CD3CC2CC8A7906535041434553006ADD31
:1079B000F1CFA679045459504500A1DC03C0B9DECB
:1079C0008CDE43DB65DBDF3CAFCCB4790549545931
:1079D000504595DC03C0BADE80DE37DB59DBEB3C7B
:1079E000A3CCCC790243520046DB0D002EDB43DBF7
:1079F0000A002BCB6ADC69DC9DDC9CDCFC01EE0F11
:107A0000FF1F85919591992734DD69DD019677DC1B
:107A100098DC75DC28DD0895EDDF0895EBDF96DE58
:107A2000D8CFE479022E52006ADC2DDF4EDC93DCE5
:107A30007ADDBDDFC2CF247A03552E5260DCF2DE40
:107A400008DF1BDF42DC87DC6EDDB1DFB6CF387AC2
:107A500002552E00E7DEFDDE10DF9ADFAECF507A52
:107A6000012EBEDC5ADB07DB0A0095DC24DB393D46
:107A7000F1CF09DF8DDFA1CF607A013F4EDBF1CF7F
:107A8000B4DC41DB68DC3BDC55DC15DB823D019777
:107A9000ACDC14DCF7DC58DD0EDB613D30DCF2DC05
:107AA0005ADC0CDC40DD5FDC24DD05DB603D01964B
:107AB000EFDA4F3D0ADC38DCDEDA00003BDC08950B
:107AC00004DC49DC3EDC1BDC90DCF8DB44DCF6DB70
:107AD0002ADD8BDCF3DBD6DC37DDEDDA703D43DC11
:107AE000EADA783D0196D4DA643D24DC08DC05C08E
:107AF000ECDB1ADC1FDC019602DC2DDC14DDE5DB9F
:107B0000E4DB11CD28DCE1DB0ECDF9DB33DE78DC04
:107B100004DBE5DC7BDC01DB73DCFFDA04DDD5DBD9
:107B2000AFDF6EDCFCCD7A7A822E2800A4DA290041
:107B3000ECDF43CF287B81289EDA2900E6DFC2CC28
:107B4000367B815C5C0097DA0D00DFDFBBCC427BCB
:107B500004434841520096DCD8DFE6DBAFCB92DC31
:107B6000D4DF89DA1F001DDDF9DDB5DC9DDBB3DC78
:107B7000B6DC019680DA0000E4DB96DB0196E1DBFF
:107B800023DEECCD507B04574F524400BEDFE6DDD0
:107B9000A2DC8ADBA0DCA3DC01966DDA0000D1DB7D
:107BA00083DB0196CEDBF9DDD9CD867B054E414DD9
:107BB000453ECCDD60DA1F00DEDB91DC5DCC59DCBC
:107BC0009EDB10C0C8DB8DDB4EDC89DCA6DAC3DBB4
:107BD00088DB49DC84DCA8DAA6DC5DDC6CDAF23D0B
:107BE00074DBA2CB55DAE23D46DA00000895A9DB4A
:107BF000A1DB64DBFADB87DA9DDB8FDA80DB0296C0
:107C0000A0DB98DB58DA163E95DB8EDA34DA3FFFDC
:107C1000B2DB67DBC0DB4FDA113E02962CDAFFFFE6
:107C200004C00296E2DB79DACADF05C04EDB7CDBFA
:107C300088DB029786CB3FDA203E049775DAE1CFE6
:107C400044DB72DB7EDB70DB029774DBB2DF79CB67
:107C5000F5DB63DACCCF53DB7EDB37DB72DB7BDB40
:107C60009ADB29DA3C3E07DA0800EFD901970ADCF3
:107C7000ECD901DA0800E9D908955CDBE6D96BDBC1
:107C800013DB0196089556DB0D9715DA4D3E0897E4
:107C900012DA4C3EF7DBF1CFDECF46DB52DB44DBC2
:107CA00049CB59DB1CDC57DB16DC75DB04DA653E9F
:107CB00067DE40DBE7DB37DCDED95F0051DCFBD978
:107CC000633EDBDF01C0DFDFEFCF2EDB44DB2BCCFD
:107CD000AC7B0645585045435400E3DF8CDB13DA98
:107CE00023CBD27C05515545525944DDC4D95000AF
:107CF000D8DF8CDB08DA18DBBED9000081DB03CAD1
:107D000047DE17DD5ADEB7D93F009FD96DDEB4DA02
:107D1000C0EFD6E04EC0CFD9923E6CDE17DD59DE03
:107D2000F5DF47C067DE00CB93DFB5DBC4D9A63EE5
:107D3000FBD9A1D940001FDBEEDF0D20636F6D7012
:107D4000696C65206F6E6C79CED90895CEDDB3D99C
:107D5000AA3E0895D5CFE47C815B8DD9287D62DB76
:107D6000D2C989D9287D5EDBD8D9EEDBA4D9BB3E48
:107D700055DE026F6B0038CEC0DCF5DACCDF0A20AE
:107D8000756E646572666C6F77000895587D044562
:107D900056414C00E4DECEDA91DA8DD9D33E42DB97
:107DA000F2DCEADFF7CFC0DADCCF8E7D0451554933
:107DB0005400A0EFADBFB7E0BEBF5DD900072CDB1C
:107DC000A2D9CBDF92DFE6DFFDCFAC7D0127C7DE96
:107DD0003FDF71D9EC3E089593CFCC7D0444554DDF
:107DE000500049D907008BDAFFDDA4DA44D9050039
:107DF00025DECEDD40D90F0082DA9BDC3CD90300C2
:107E00001DDE46D9FD3EC4DD95DA35D910008BDB89
:107E100032D91000D2DD3CD9F43E86CADC7D05495A
:107E200044554D5028D907006ADADEDD83DA23D9BC
:107E3000050004DEADDD1FD90F0061DA87DC1BD938
:107E40000300FCDD25D91E3FA3DD74DA14D9100030
:107E50006ADB11D91000BDDD1BD9153F65CA1E7E36
:107E6000022E53004ADC4BDA03C03BDA50DCF9DD6A
:107E70000FD9353FD3DD04203C73700008953FDAFD
:107E8000DDDA4BD957DA17D94F3F54DA92DE29DAC7
:107E900082DA11D94F3F029747D917D9423F15DAF5
:107EA00043CA54DCE8D81F0066DA93CD607E0557DC
:107EB0004F52445399DDC2DA30D9EDDAFCD8673F2E
:107EC00039DA66DDEEDF02972FD9FFD85D3F0895DE
:107ED0008BDDA4DD0F33323865466F72746820760F
:107EE000322E323081CDAE7E04434F4C4400B6D8A2
:107EF000C2D800011FDA35D0BED81E010ED981D9F3
:107F000099D9B9D81E0109D97CD994D9DBDA62DABA
:107F10003ADC4FCFE87E054552415345FC0189913B
:107F2000999143E02AD041E128C0167F0557524974
:107F30005445FC0189919991DC018991999160E8FE
:107F40000D901D9041E019D032966250C9F7E0586B
:107F5000F04045E012D041E110C02C7F0452454171
:107F60004400DC0189919991FC018991999160E823
:107F700005900D926150E1F7089517B710FDFDCF00
:067F800047BFE8950895DB
:100200005C7F02312B0001960895020202312D001D
:10021000019708950C0202322B00029608951602EF
:1002200002322D00029708952002013E2991399152
:10023000281739070DC02A0202443E00099119917E
:1002400029913991E990F990E016F10628073907CC
:10025000C1011CF011F0019708950895380202447D
:100260002B0029913991E990F99049915991240FE6
:10027000351F8E1D9F1D3A932A9308955E020244F6
:100280002D0029913991E990F99049915991421B9A
:10029000530BE80AF90A5A934A93C70108957E025C
:1002A00005414C4C4F540E94283A0C948F3BA002BD
:1002B0000649414C4C4F54000E94233A0C948F3B0A
:1002C000B002012C0E94233A0E948D380E949A3974
:1002D0000E940D010E94233A0E9483380C94DD385D
:1002E0000E943B380E940E946201ECCFC202895BEF
:1002F000434F4D50494C455D0E94E73E0E94393ABC
:10030000EFCFEE0247434F4D50494C450E946539AF
:100310000E94333A0E949A390E948D380E946201ED
:100320000E940D010E949A390E948D380E9462013C
:100330000E940D010E94393A0E947F3908950403FA
:10034000074C49544552414C0E943B383B380E946F
:100350007001B8CF0E943B3822000E94C63D0E9427
:100360009A390E945E390E94393A0E947F390E9470
:100370009A390E948D380E9462010E940D010E94EC
:100380004838B7010C949439400385424547494E9B
:100390000E94233A0C948D388A0383464F520E9460
:1003A0003B387F390E947001F3CF9A03844E455841
:1003B00054000E943B3848380E9470010E94393A2C
:1003C00081CFAC0385554E54494C0E943B385B3875
:1003D0000E9470010E94393A75CFC403854147419C
:1003E000494E0E943B3865380E9470010E94393A9C
:1003F00069CFDC03824946000E943B385B380E948B
:1004000070010E94C8010E943B38020055CF0E9433
:100410003B3865380E9470010E94C8010E943B3839
:1004200002000C945C01F40386524550454154008F
:100430000E94F1010E94C8010E94393A0E94A1392C
:100440000C94DD382804845448454E000E94C801AD
:100450000E94393A0E94A1390C94DD384604834148
:1004600046540E9494390E9407020E94C8010C94CD
:10047000A1395E0484454C5345000E9407020E9446
:10048000A1390C9426027404855748494C450E94B2
:10049000FC010C94A13988048641424F5254220039
:1004A0000E943B388B3E0E9470010E94AA01089571
:1004B0009804822422000E943B380C3D0E94700167
:1004C0000E94AA010895B204822E22000E943B38A5
:1004D0000E3D0E9470010E94AA0108950E949A395F
:1004E0000E94283E0E945B3881020E940E3D072038
:1004F0007265446566200E94AB390E94993B0E9458
:10050000DD3C0C9494390E949A390E945E390E9415
:100510005B38AF020E946E020E942E3A0E948D3814
:100520000E9462010E94233A0E948D380E942E3A56
:100530000E9483380E949A390E945E390E94393A9B
:100540000E947F390E949A390E948D380E94620170
:100550000E940D010E944838A2020C9494390E9416
:100560000C3D05206E616D650C94803E0E94283E16
:100570000E944B3A0E945B38CD020E9494380E9440
:100580003B3880000E94BB390E945B38C9020C9442
:1005900073380E94393A0C9470010E94753C0E9495
:1005A0005B38D4020C94A4010C94803EC804054F1F
:1005B000564552540E942E3A0E948D380E941E3A8F
:1005C0000C948338AE05C13B0E943B3808950E94CD
:1005D00062010E94AD3E0C94DA02C605015D0E94E4
:1005E0003B386C050E94123A0C948338DC05013AC2
:1005F0000E94AF3D0E9483020C94EF02EE05094970
:100600004D4D4544494154450E943B3880000E946D
:100610002E3A0E948D380E9494380E94C3390E945D
:100620002E3A0E948D380C94DD38FE050643524563
:10063000415445000E94AF3D0E9483020E94DA02AD
:100640000E943B38DD390E9470010E94283A0E94C6
:100650008D380C9462012C0608434F4E5354414E82
:1006600054000E94AF3D0E9483020E94DA020E9461
:100670003B38DD390E9470010C946201580608561F
:1006800041524941424C45000E941A030E943B38A6
:0606900002000C9453016E
:00000001FF
